:100000000C9452010C947A010C947A010C947A01AC
:100010000C947A010C947A010C947A010C947A0174
:100020000C947A010C947A010C947A010C947A0164
:100030000C947A010C947A010C947A010C947A0154
:100040000C94B9050C947A010C9429060C940306BF
:100050000C947A010C947A010C947A010C947A0134
:100060000C947A010C947A01000000000000005FFB
:1000700000000007000700147F147F14242A7F2A41
:10008000122313086462364955225000050300000C
:10009000001C2241000041221C0014083E081408E4
:1000A000083E0808005030000008080808080060F2
:1000B00060000020100804023E5149453E00427F86
:1000C000400042615149462141454B311814127F8D
:1000D0001027454545393C4A494930017109050316
:1000E0003649494936064949291E0036360000007E
:1000F0005636000008142241001414141414004150
:100100002214080201510906324979413E7E11113B
:10011000117E7F494949363E414141227F4141227A
:100120001C7F494949417F090909013E4149497AF2
:100130007F0808087F00417F41002040413F017F48
:10014000081422417F404040407F020C027F7F0420
:1001500008107F3E4141413E7F090909063E415159
:10016000215E7F09192946464949493101017F012C
:10017000013F4040403F1F2040201F3F4038403F4C
:100180006314081463070870080761514945430068
:100190007F41410002040810200041417F00040219
:1001A0000102044040404040000102040020545439
:1001B00054787F48444438384444442038444448C0
:1001C0007F3854545418087E0901020C5252523E92
:1001D0007F0804047800447D40002040443D007FB7
:1001E0001028440000417F40007C041804787C08FB
:1001F00004047838444444387C1414140808141453
:10020000187C7C080404084854545420043F44409B
:10021000203C4040207C1C2040201C3C4030403C86
:1002200044281028440C5050503C4464544C440022
:100230000836410000007F00000041360800100829
:100240000810080000000000000000002400270043
:100250002A0000000000250028002B0000000000FC
:1002600023002600290004040404040404040202F8
:100270000202020203030303030301020408102025
:100280004080010204081020010204081020000030
:100290000008000201000003040700000000000045
:1002A00000005B0611241FBECFEFD8E0DEBFCDBF3C
:1002B00011E0A0E0B1E0E2E2FAE102C005900D92A7
:1002C000A433B107D9F722E0A4E3B1E001C01D9245
:1002D000A932B207E1F711E0C2E5D1E004C02197ED
:1002E000FE010E94090DC135D107C9F70E949B0686
:1002F0000C940F0D0C940000833081F028F48130B1
:1003000099F08230A9F008958730A9F08830C9F0BB
:100310008430B1F4809180008F7D03C08091800093
:100320008F7780938000089584B58F7784BD08957A
:1003300084B58F7DFBCF8091B0008F778093B00024
:1003400008958091B0008F7DF9CFCF93DF93282F50
:1003500030E0F901E257FD4F8491F901E658FD4F75
:10036000D491F901EA59FD4FC491CC23A1F0811138
:100370000E947C01EC2FF0E0EE0FFF1FE45AFD4FCE
:10038000A591B491EC91ED2381E090E009F480E037
:10039000DF91CF91089580E090E0FACF1F93CF9343
:1003A000DF93282F30E0F901E257FD4F8491F901E6
:1003B000E658FD4FD491F901EA59FD4FC491CC2381
:1003C000A9F0162F81110E947C01EC2FF0E0EE0FB6
:1003D000FF1FEE5AFD4FA591B4918FB7F894EC91A1
:1003E000111108C0D095DE23DC938FBFDF91CF9130
:1003F0001F910895DE2BF8CFCF93DF9390E0FC019F
:10040000E658FD4F24918A599D4FFC018491882321
:10041000D1F090E0880F991FFC01E85BFD4FA5919A
:10042000B491FC01EE5AFD4FC591D491623071F444
:100430009FB7F8943C91822F809583238C93E88119
:100440002E2B28839FBFDF91CF9108958FB7F8940B
:10045000EC912E2B2C938FBFF6CF8E50806480931F
:100460007C0080917A00806480937A0080917A0089
:1004700086FDFCCF809178009091790008953FB778
:10048000F8948091390190913A01A0913B01B0918B
:100490003C0126B5A89B05C02F3F19F00196A11D70
:1004A000B11D3FBFBA2FA92F982F8827BC01CD01BE
:1004B000620F711D811D911D42E0660F771F881F1D
:1004C000991F4A95D1F708958F929F92AF92BF924C
:1004D000CF92DF92EF92FF924B015C010E943F02AC
:1004E0006B017C010E943F026C197D098E099F09F6
:1004F000683E734081059105A8F321E0821A9108B6
:10050000A108B10888EEC80E83E0D81EE11CF11CDA
:1005100081149104A104B10429F7FF90EF90DF90BA
:10052000CF90BF90AF909F908F900895DC01ED9198
:10053000FC910190F081E02D0994AF92BF92CF928F
:10054000DF92EF92FF920F931F93CF93DF936C0193
:100550007B018B01040F151FEB015E01AE18BF0874
:10056000C017D10759F06991D601ED91FC91019026
:10057000F081E02DC6010995892B79F7C501DF913E
:10058000CF911F910F91FF90EF90DF90CF90BF9090
:10059000AF900895FC01538D448D252F30E0842FBA
:1005A00090E0821B930B541710F0CF96089501979B
:1005B0000895FC01918D828D981761F0A28DAE0F88
:1005C000BF2FB11D5D968C91928D9F5F9F73928F0F
:1005D00090E008958FEF9FEF0895FC01918D828D3B
:1005E000981731F0828DE80FF11D858D90E0089508
:1005F0008FEF9FEF0895FC01918D228D892F90E060
:10060000805C9F4F821B91098F73992708958DE31A
:1006100091E00E94FB0221E0892B09F420E0822F67
:10062000089580E090E0892B29F00E940703811152
:100630000C9400000895FC01A48DA80FB92FB11DE2
:10064000A35ABF4F2C91848D90E001968F73992708
:10065000848FA689B7892C93A089B1898C918370E6
:1006600080648C93938D848D981306C00288F389DF
:10067000E02D80818F7D80830895EF92FF920F930C
:100680001F93CF93DF93EC0181E0888F9B8D8C8D3E
:1006900098131AC0E889F989808185FF15C09FB732
:1006A000F894EE89FF896083E889F98980818370F5
:1006B000806480839FBF81E090E0DF91CF911F91A4
:1006C0000F91FF90EF900895F62E0B8D10E00F5FC5
:1006D0001F4F0F731127E02E8C8D8E110CC00FB69B
:1006E00007FCFACFE889F989808185FFF5CFCE0133
:1006F0000E941B03F1CFEB8DEC0FFD2FF11DE35A90
:10070000FF4FF0829FB7F8940B8FEA89FB898081B5
:100710008062CFCFCF93DF93EC01888D8823B9F02F
:10072000AA89BB89E889F9898C9185FD03C08081FC
:1007300086FD0DC00FB607FCF7CF8C9185FFF2CF79
:10074000808185FFEDCFCE010E941B03E9CFDF91B1
:10075000CF910895089590E080E00895EF92FF9280
:100760000F931F93CF93DF93EC01042F8E810E9490
:10077000CE0160E088850E94CE01FC80ED8018E00B
:10078000602F661F6627661F8E2D0E94CE01000F08
:1007900061E08F2D0E94CE0160E08F2D0E94CE017E
:1007A000115071F761E08885DF91CF911F910F9112
:1007B000FF90EF900C94CE01CF93DF93CAEDD1E080
:1007C0001C8690E06B8529E3629F612D112466955C
:1007D00070E06F5F7F4F0E94BF0C8D8740E860E044
:1007E000CE010E94AE034D85406460E0CE01DF91F2
:1007F000CF910C94AE03FB0101900020E9F73197F3
:10080000AF01461B570BDC01ED91FC910280F38197
:10081000E02D09948F929F92AF92BF92EF92FF9238
:100820000F931F93CF93DF93CDB7DEB7A1970FB68A
:10083000F894DEBF0FBECDBF7C01FA01CB0119A237
:10084000223008F42AE08E010F5D1F4F822E912C7A
:10085000B12CA12CBF01A50194010E94D30CF90178
:10086000CA016A300CF5605DD8016E938D01232BAF
:10087000242B252B79F790E080E0109721F0BD0123
:10088000C7010E94FB03A1960FB6F894DEBF0FBE0E
:10089000CDBFDF91CF911F910F91FF90EF90BF904F
:1008A000AF909F908F900895695CDECF2F923F921A
:1008B0004F925F926F927F928F929F92AF92BF9270
:1008C000CF92DF92EF92FF921F93CF93DF93EC01D1
:1008D0006A017B01722EAB019601CB01B6010E9429
:1008E000BA0C6EE171E0811126C046015701E8940F
:1008F000B7F82FEF3FEF4FE75FE7C501B4010E9464
:10090000BA0C81110CC02FEF3FEF4FE75FE7C50135
:10091000B4010E94F00A62E271E0181664F02FEF51
:100920003FEF4FE75FE4C701B6010E94480C18167D
:10093000B4F466E271E0CE01DF91CF911F91FF9098
:10094000EF90DF90CF90BF90AF909F908F907F906F
:100950006F905F904F903F902F900C94FB032FEF80
:100960003FEF4FE75FECC701B6010E94F00A87FD39
:10097000E0CF20E030E0A901C701B6010E94F00AF3
:10098000312C212C87FF09C06DE2CE010E94960216
:100990001C01F7FAF094F7F8F09410E060E070E0D2
:1009A00080E09FE3711641F020E030E040E251E446
:1009B0000E94F50A1F5FF6CFA70196010E94840AE4
:1009C0002B013C010E94670B4B015C012AE0BC013A
:1009D000A401CE010E940A047C01E20CF31C112345
:1009E000C1F1C501B4010E94960B9B01AC01C3018A
:1009F000B2010E94830A4B015C016EE2CE010E94AB
:100A00009602E80EF91E115020F120E030E040E29D
:100A100051E4C501B4010E944D0C2B013C010E9420
:100A2000670B4B01B12CA12C2AE0B501A401CE012A
:100A30000E940A04E80EF91EC501B4010E94960B3B
:100A40009B01AC01C301B2010E94830A4B015C010E
:100A5000DACFC701DF91CF911F91FF90EF90DF9028
:100A6000CF90BF90AF909F908F907F906F905F904E
:100A70004F903F902F900895CF92DF92EF92FF9288
:100A80000F931F93CF93DF9300D000D01F92CDB769
:100A9000DEB767FD6BC07C01862F90E0603208F402
:100AA00055C0809725E0289FB001299F700D112423
:100AB00068597F4F45E050E0CE0101960E947A0AC6
:100AC0008E010F5F1F4F680185E0C80ED11CF80131
:100AD00041918F01F70186858111409561E0C70141
:100AE0000E94AE030C151D0591F7F701468541954F
:100AF00061E0C7010E94AE03F701848590E006968D
:100B0000628570E00E94BF0C8487892B79F485850B
:100B100090E00196638529E3629F612D112466951B
:100B200070E06F5F7F4F0E94BF0C858781E090E08F
:100B30000F900F900F900F900F90DF91CF911F911A
:100B40000F91FF90EF90DF90CF900895880F991F3D
:100B5000F701E80FF91F078510890115110509F044
:100B6000B2CF45E050E068E670E0A6CF90E080E0CC
:100B7000DFCF1F920F920FB60F9211242F933F9346
:100B80008F939F93AF93BF938091350190913601DE
:100B9000A0913701B09138013091340123E0230F47
:100BA0002D3758F50196A11DB11D20933401809376
:100BB000350190933601A0933701B09338018091AD
:100BC000390190913A01A0913B01B0913C0101960D
:100BD000A11DB11D8093390190933A01A0933B016F
:100BE000B0933C01BF91AF919F918F913F912F9115
:100BF0000F900FBE0F901F90189526E8230F0296B6
:100C0000A11DB11DD2CF1F920F920FB60F921124CA
:100C10002F933F934F935F936F937F938F939F9304
:100C2000AF93BF93EF93FF938DE391E00E941B037B
:100C3000FF91EF91BF91AF919F918F917F916F91B4
:100C40005F914F913F912F910F900FBE0F901F908A
:100C500018951F920F920FB60F9211242F938F9316
:100C60009F93EF93FF93E0914D01F0914E018081AE
:100C7000E0915301F091540182FD1BC0908180915D
:100C800056018F5F8F7320915701821741F0E091D9
:100C90005601F0E0E35CFE4F958F80935601FF9183
:100CA000EF919F918F912F910F900FBE0F901F90FA
:100CB00018958081F4CFEDE3F1E01382128288EE83
:100CC00093E0A0E0B0E084839583A683B78384E0BB
:100CD00091E09183808385EC90E09587848784EC14
:100CE00090E09787868780EC90E0918B808B81ECF9
:100CF00090E0938B828B82EC90E0958B848B86ECDA
:100D000090E0978B868B118E128E138E148EEAEDE7
:100D1000F1E01382128286E191E09183808383E087
:100D2000848384E0858385E0868386E0878387E00B
:100D3000808716860895CF93DF93CDB7DEB7C65769
:100D4000D1090FB6F894DEBF0FBECDBF789484B53D
:100D5000826084BD84B5816084BD85B5826085BDB7
:100D600085B5816085BD80916E00816080936E0045
:100D70001092810080918100826080938100809137
:100D800081008160809381008091800081608093E8
:100D900080008091B10084608093B1008091B000A8
:100DA00081608093B00080917A00846080937A00A3
:100DB00080917A00826080937A0080917A008160CD
:100DC00080937A0080917A00806880937A001092F4
:100DD000C10084E58093E40180E38093E5011092F3
:100DE000E3011092E6011092E701E9EEF1E080E400
:100DF000DF011D928A95E9F761E08091DE010E9492
:100E0000FC0161E08091DF010E94FC0161E08091C2
:100E1000E0010E94FC0161E08091E1010E94FC017F
:100E200061E08091E2010E94FC0161E08091E101BA
:100E30000E94CE0161E08091E2010E94CE0160E05B
:100E40008091E1010E94CE0164E670E080E090E0D4
:100E50000E94640261E08091E1010E94CE0141E2C2
:100E600060E08AED91E00E94AE0343E160E08AED2C
:100E700091E00E94AE038091E30142EC813039F4AD
:100E800040EE60E08AED91E00E94AE0345E060E054
:100E90008AED91E00E94AE0340E260E08AED91E0CD
:100EA0000E94AE0349E060E08AED91E00E94AE034B
:100EB00080E00E94DC0310E000E08091E50186956F
:100EC000869586959091E401899FC00111240817A9
:100ED000190748F440E061E08AED91E00E94AE031A
:100EE0000F5F1F4FEACF80E00E94DC0348E060E024
:100EF0008AED91E00E94AE034CE060E08AED91E063
:100F00000E94AE0364E670E080E090E00E9464021C
:100F100040E860E08AED91E00E94AE0340E460E0CA
:100F20008AED91E00E94AE03E0914D01F0914E01F7
:100F300082E08083E0914901F0914A011082E091C2
:100F40004B01F0914C0180E1808310925501E091BA
:100F50005101F091520186E08083E0914F01F091C0
:100F60005001808180618083E0914F01F0915001B8
:100F7000808188608083E0914F01F09150018081F1
:100F800080688083E0914F01F091500180818F7DD6
:100F9000808361E088E00E94FC0161E089E00E94BA
:100FA000FC0161E08AE00E94FC0161E08BE00E94AC
:100FB000FC0162E08CE00E94FC0162E082E00E94A1
:100FC000FC017E01B1E6EB0EF11CFE01EF5AFF4F72
:100FD000E396FFAFEEAFE397CF014096E5969FAF64
:100FE0008EAFE597D7015096E796BFAFAEAFE797C4
:100FF00080E1F70111928A95E9F78CE00E94A50142
:101000003C01FE013196DF0150967E916E915E911A
:101010004E9114964D935D936D937C931797EA17B9
:10102000FB0799F780E090E0A0ECB1EC808391831E
:10103000A283B3837496E396AEADBFADE397EA1790
:10104000FB0709F76114710409F4ACC124E1C22E55
:10105000D12C8EE00E942D02BC01990F880B990BB8
:101060000E94980B20E030EC4FE754E40E94F50A10
:1010700020E030E040E452E40E944D0C20E030E0FB
:1010800040EC51E40E94830A65966CAF7DAF8EAF51
:101090009FAF65978FE00E942D02BC01990F880BCE
:1010A000990B0E94980B20E030EC4FE754E40E942B
:1010B000F50A20E030E040E452E40E944D0C20E0CC
:1010C00030E040EC51E40E94830A69966CAF7DAF3A
:1010D0008EAF9FAF699780E10E942D02BC01990FEE
:1010E000880B990B0E94980B20E030EC4FE754E4FA
:1010F0000E94F50A20E030E040E452E40E944D0CEA
:1011000020E030E040EC51E40E94830A6D966CAF21
:101110007DAF8EAF9FAF6D9781E10E942D02BC0124
:10112000990F880B990B0E94980B20E030EC4FE749
:1011300054E40E94F50A20E030E040E452E40E94CA
:101140004D0C20E030E040EC51E40E94830AA1966F
:101150006CAF7DAF8EAF9FAFA197FE01EF5AFF4FEF
:101160005F018E010F5F1F4FD5012D903D904D9077
:101170005D905D01F8012081318142815381C2017E
:10118000B1010E94480C181634F4D8012D923D92FA
:101190004D925C9213970C5E1F4FE596EEADFFAD3E
:1011A000E597EA15FB0501F76AE070E080E090E062
:1011B0000E946402F1E0CF1AD10809F04ACF17016A
:1011C0006E0125E0C20ED11C8701D8016D917D9181
:1011D0008D919C914601B0E18B0E911C5601F50159
:1011E00021913191419151915F010E94840AA8148B
:1011F000B904A9F7D8016D937D938D939C931397B0
:1012000020E030E040E85EE30E944D0C6114710480
:1012100009F04DC1F80160837183828393830C5F71
:101220001F4FB4E1CB0ED11CE796EEADFFADE797B3
:101230000E171F0751F6672809F446C190E3492E9F
:1012400096E4592E92E6692E91E4792E670110E01A
:1012500000E0D6018D909D90AD90BD906D0120E095
:1012600030E0A901C501B4010E94480C181624F011
:10127000B7FAB094B7F8B094A5019401C301B201D4
:101280000E94F00A87FF27C188E00115110549F087
:1012900089E00130110529F08AE00230110509F0DA
:1012A0008BE061E00E94CE010F5F1F4F04301105FB
:1012B00081F68701812C912C5401D12C8D2D0E9417
:1012C000DC036AE271E08AED91E00E94FB032AE010
:1012D000B501A4018AED91E00E940A046CE271E07C
:1012E0008AED91E00E94FB03F801419151916191D7
:1012F00071918F0122E08AED91E00E945604D3940F
:10130000FFEF8F1A9F0AAF0ABF0A24E0D212D6CF8E
:1013100082E00E94A501892BC1F1812C912C5401FE
:101320006AE271E08DE391E00E94FB032AE0B501DF
:10133000A4018DE391E00E940A046CE271E08DE368
:1013400091E00E94FB03D1014D915D916D917D91E2
:101350001D0122E08DE391E00E9456046FE271E0EE
:101360008DE391E00E94FB03BFEF8B1A9B0AAB0A4F
:10137000BB0AE4E08E169104A104B10489F661E38E
:1013800071E08DE391E00E94FB0380E090E0892B07
:1013900009F42ECE0E940703882309F429CE0E9467
:1013A000000026CE8EE00E942D02BC01990F880B12
:1013B000990B0E94980B20E030EC4FE754E40E9418
:1013C000F50A20E030E040E452E40E944D0C20E0B9
:1013D00030E040EC51E40E94830A69837A838B8376
:1013E0009C838FE00E942D02BC01990F880B990B02
:1013F0000E94980B20E030EC4FE754E40E94F50A7D
:1014000020E030E040E452E40E944D0C20E030E067
:1014100040EC51E40E94830A6D8B7E8B8F8B988FFA
:1014200080E10E942D02BC01990F880B990B0E944C
:10143000980B20E030EC4FE754E40E94F50A20E0DE
:1014400030E040E452E40E944D0C20E030E040ECFB
:1014500051E40E94830A69A77AA78BA79CA781E120
:101460000E942D02BC01990F880B990B0E94980BCA
:1014700020E030EC4FE754E40E94F50A20E030E031
:1014800040E452E40E944D0C20E030E040EC51E496
:101490000E94830A21966CAF7DAF8EAF9FAF2197DC
:1014A0006CE370E080E090E00E94640288CE23EF5D
:1014B00034E045EB5FE30E94F50AD8016D937D931C
:1014C0008D939C931397ABCE412C512C80EA682EC0
:1014D00081E4782EBBCE88E00115110549F089E042
:1014E0000130110529F08AE00230110509F08BE086
:1014F00060E0D8CEFB01DC0102C005900D924150A6
:101500005040D8F708955058BB27AA270E949B0A3D
:101510000C940E0C0E94000C38F00E94070C20F076
:1015200039F49F3F19F426F40C94FD0B0EF4E0956A
:10153000E7FB0C94F70BE92F0E941F0C58F3BA1726
:10154000620773078407950720F079F4A6F50C94D9
:10155000410C0EF4E0950B2EBA2FA02D0B01B90112
:1015600090010C01CA01A0011124FF27591B99F019
:10157000593F50F4503E68F11A16F040A22F232F25
:10158000342F4427585FF3CF469537952795A79575
:10159000F0405395C9F77EF41F16BA0B620B730B1C
:1015A000840BBAF09150A1F0FF0FBB1F661F771F8D
:1015B000881FC2F70EC0BA0F621F731F841F48F442
:1015C000879577956795B795F7959E3F08F0B0CFCB
:1015D0009395880F08F09927EE0F979587950895B2
:1015E0000E94D30B08F481E008950E94090B0C942B
:1015F0000E0C0E94070C58F00E94000C40F029F4D9
:101600005F3F29F00C94F70B51110C94420C0C9491
:10161000FD0B0E941F0C68F39923B1F3552391F33E
:10162000951B550BBB27AA2762177307840738F051
:101630009F5F5F4F220F331F441FAA1FA9F335D0AE
:101640000E2E3AF0E0E832D091505040E695001C62
:10165000CAF72BD0FE2F29D0660F771F881FBB1F1C
:10166000261737074807AB07B0E809F0BB0B802DFA
:10167000BF01FF2793585F4F3AF09E3F510578F026
:101680000C94F70B0C94420C5F3FE4F3983ED4F3B8
:10169000869577956795B795F7959F5FC9F7880FFA
:1016A000911D9695879597F90895E1E0660F771F4C
:1016B000881FBB1F621773078407BA0720F0621BDD
:1016C000730B840BBA0BEE1F88F7E09508950E9408
:1016D000270C88F09F5798F0B92F9927B751B0F091
:1016E000E1F0660F771F881F991F1AF0BA95C9F7A6
:1016F00014C0B13091F00E94410CB1E008950C94F7
:10170000410C672F782F8827B85F39F0B93FCCF3A9
:10171000869577956795B395D9F73EF49095809522
:10172000709561957F4F8F4F9F4F0895E89409C042
:1017300097FB3EF490958095709561957F4F8F4F04
:101740009F4F9923A9F0F92F96E9BB279395F6951A
:10175000879577956795B795F111F8CFFAF4BB0F98
:1017600011F460FF1BC06F5F7F4F8F4F9F4F16C0FC
:10177000882311F096E911C0772321F09EE8872F86
:10178000762F05C0662371F096E8862F70E060E042
:101790002AF09A95660F771F881FDAF7880F9695BB
:1017A000879597F90895990F0008550FAA0BE0E85F
:1017B000FEEF16161706E807F907C0F01216130613
:1017C000E407F50798F0621B730B840B950B39F453
:1017D0000A2661F0232B242B252B21F408950A26B9
:1017E00009F4A140A6958FEF811D811D089597F9F9
:1017F0009F6780E870E060E008959FEF80EC0895B7
:1018000000240A94161617061806090608950024DF
:101810000A9412161306140605060895092E039459
:10182000000C11F4882352F0BB0F40F4BF2B11F4CD
:1018300060FF04C06F5F7F4F8F4F9F4F089557FD2C
:101840009058440F551F59F05F3F71F04795880F2E
:1018500097FB991F61F09F3F79F0879508951216C5
:1018600013061406551FF2CF4695F1DF08C0161671
:1018700017061806991FF1CF869571056105089422
:101880000895E894BB2766277727CB0197F9089539
:101890000E94D30B08F48FEF08950E94600C0C9403
:1018A0000E0C0E94000C38F00E94070C20F09523CB
:1018B00011F00C94F70B0C94FD0B11240C94420CBA
:1018C0000E941F0C70F3959FC1F3950F50E0551FB8
:1018D000629FF001729FBB27F00DB11D639FAA2785
:1018E000F00DB11DAA1F649F6627B00DA11D661FD4
:1018F000829F2227B00DA11D621F739FB00DA11DF5
:10190000621F839FA00D611D221F749F3327A00DAE
:10191000611D231F849F600D211D822F762F6A2F4A
:1019200011249F5750409AF0F1F088234AF0EE0FAF
:10193000FF1FBB1F661F771F881F91505040A9F7DC
:101940009E3F510580F00C94F70B0C94420C5F3FC6
:10195000E4F3983ED4F3869577956795B795F79518
:10196000E7959F5FC1F7FE2B880F911D9695879590
:1019700097F908950E94D30B880B990B089597FB54
:10198000072E16F4009407D077FD09D00E94F50CBD
:1019900007FC05D03EF4909581959F4F0895709572
:1019A00061957F4F0895A1E21A2EAA1BBB1BFD0172
:1019B0000DC0AA1FBB1FEE1FFF1FA217B307E4072E
:1019C000F50720F0A21BB30BE40BF50B661F771F86
:1019D000881F991F1A9469F7609570958095909566
:1019E0009B01AC01BD01CF010895AA1BBB1B51E1B6
:1019F00007C0AA1FBB1FA617B70710F0A61BB70B7F
:101A0000881F991F5A95A9F780959095BC01CD0123
:101A10000895EE0FFF1F0590F491E02D0994F894BE
:021A2000FFCFF6
:101A2200000000003D039D02CA028A03FB02D902A4
:101A3200ED02000000003C059D02AB03AA036E61AB
:101A42006E00696E66006F76660056003A200009E5
:041A5200000A000086
:00000001FF
