:100000000C944D010C9475010C9475010C947501C0
:100010000C9475010C9475010C9475010C94750188
:100020000C9475010C9475010C9475010C94750178
:100030000C9475010C9475010C9475010C94750168
:100040000C9436050C9475010C9475010C94750193
:100050000C9475010C9475010C9475010C94750148
:100060000C9480050C947501000000000000005FF6
:1000700000000007000700147F147F14242A7F2A41
:10008000122313086462364955225000050300000C
:10009000001C2241000041221C0014083E081408E4
:1000A000083E0808005030000008080808080060F2
:1000B00060000020100804023E5149453E00427F86
:1000C000400042615149462141454B311814127F8D
:1000D0001027454545393C4A494930017109050316
:1000E0003649494936064949291E0036360000007E
:1000F0005636000008142241001414141414004150
:100100002214080201510906324979413E7E11113B
:10011000117E7F494949363E414141227F4141227A
:100120001C7F494949417F090909013E4149497AF2
:100130007F0808087F00417F41002040413F017F48
:10014000081422417F404040407F020C027F7F0420
:1001500008107F3E4141413E7F090909063E415159
:10016000215E7F09192946464949493101017F012C
:10017000013F4040403F1F2040201F3F4038403F4C
:100180006314081463070870080761514945430068
:100190007F41410002040810200041417F00040219
:1001A0000102044040404040000102040020545439
:1001B00054787F48444438384444442038444448C0
:1001C0007F3854545418087E0901020C5252523E92
:1001D0007F0804047800447D40002040443D007FB7
:1001E0001028440000417F40007C041804787C08FB
:1001F00004047838444444387C1414140808141453
:10020000187C7C080404084854545420043F44409B
:10021000203C4040207C1C2040201C3C4030403C86
:1002200044281028440C5050503C4464544C440022
:100230000836410000007F00000041360800100829
:100240000810080000000000000000080002010083
:100250000003040700000000000000000000000090
:10026000250028002B0000000000240027002A00A1
:10027000040404040404040402020202020203034C
:100280000303030301020408102040800102040854
:1002900010200102040810209B0611241FBECFEF7E
:1002A000D8E0DEBFCDBF11E0A0E0B1E0E6EFFEE1B7
:1002B00002C005900D92A232B107D9F722E0A2E266
:1002C000B1E001C01D92AC3AB207E1F711E0CDE414
:1002D000D1E004C02197FE010E94730FCC34D107F6
:1002E000C9F70E94BA060C94790F0C94000090E0B4
:1002F000FC01EC57FD4F249180599D4FFC018491E6
:10030000882399F090E0880F991FFC01EA59FD4F6E
:10031000A591B491FC01E45AFD4F859194918FB75A
:10032000F894EC91E22BEC938FBF089590E0FC01E0
:10033000E85BFD4F2491FC01EC57FD4F3491FC012B
:10034000E059FD4FE491EE23C9F0222339F0233028
:1003500001F1A8F4213019F1223029F1F0E0EE0F7B
:10036000FF1FE45AFD4FA591B4918FB7F894EC911B
:10037000611126C030953E233C938FBF08952730EE
:10038000A9F02830C9F0243049F7809180008F7D92
:1003900003C0809180008F7780938000DFCF84B589
:1003A0008F7784BDDBCF84B58F7DFBCF8091B0008C
:1003B0008F778093B000D2CF8091B0008F7DF9CF3E
:1003C0003E2BDACF806480937C0080917A00806439
:1003D00080937A0080917A0086FDFCCF809178002E
:1003E0009091790008953FB7F8948091D40190914D
:1003F000D501A091D601B091D70126B5A89B05C023
:100400002F3F19F00196A11DB11D3FBFBA2FA92F93
:10041000982F8827BC01CD01620F711D811D911D90
:1004200042E0660F771F881F991F4A95D1F70895FC
:100430008F929F92AF92BF92CF92DF92EF92FF92F4
:100440000E94F3014B015C0184E6C82ED12CE12C03
:10045000F12C0E94F301681979098A099B09683E09
:10046000734081059105A8F321E0C21AD108E10883
:10047000F10888EE880E83E0981EA11CB11CC114FF
:10048000D104E104F10429F7FF90EF90DF90CF90C1
:10049000BF90AF909F908F900895AF92BF92CF92F0
:1004A000DF92EF92FF920F931F93CF93DF936C0134
:1004B0007B018B01040F151FEB015E01AE18BF0815
:1004C000C017D10759F06991D601ED91FC910190C7
:1004D000F081E02DC6010995892B79F7C501DF91DF
:1004E000CF911F910F91FF90EF90DF90CF90BF9031
:1004F000AF900895089520914901260F3327331FA7
:1005000021323105ECF420916D01FC0190E080E096
:10051000243069F082E00895A09149012191AC0155
:10052000475D5E4FA40FB52FB11D2C930196861722
:1005300098F380914901680F6093490180E0089524
:1005400081E0089508958FEF9FEF08958FEF9FEF5B
:1005500008958091220190E09195819591090895E7
:10056000CF93DF93CB01EA01642F0E947B02CE017F
:10057000DF91CF910895CF93DF931F92CDB7DEB770
:10058000698361E0CE0101960E947B0281E090E0E8
:100590000F90DF91CF91089590E080E00895FC01E5
:1005A00001900020E9F73197AF01481B590BBC01BE
:1005B0008EE592E00C944D028F929F92AF92BF9283
:1005C0000F931F93CF93DF93CDB7DEB7A1970FB6ED
:1005D000F894DEBF0FBECDBF19A2423008F44AE046
:1005E0008E010F5D1F4F842E912CB12CA12CA501E3
:1005F00094010E943D0FE62FB901CA01EA30F4F4DC
:10060000E05DD801EE938D01232B242B252B79F768
:1006100090E080E0109719F0CD010E94CF02A196E2
:100620000FB6F894DEBF0FBECDBFDF91CF911F9103
:100630000F91BF90AF909F908F900895E95CE1CFAC
:10064000EF92FF920F931F93CF93DF93EC01042F50
:100650008E810E94960160E088850E949601FC8050
:10066000ED8018E0602F661F6627661F8E2D0E94A2
:100670009601000F61E08F2D0E94960160E08F2DA2
:100680000E949601115071F761E08885DF91CF914A
:100690001F910F91FF90EF900C949601CF93DF93F1
:1006A000CEE5D2E01C8690E06B8529E3629F612D48
:1006B0001124669570E06F5F7F4F0E94290F8D8730
:1006C00040E860E0CE010E9420034D85406460E078
:1006D000CE01DF91CF910C942003CF92DF92EF9265
:1006E000FF920F931F93CF93DF9300D000D01F9200
:1006F000CDB7DEB767FD66C07C01862F90E0603223
:1007000008F44FC0809725E0289FB001299F700D05
:10071000112468597F4F45E050E0CE0101960E94B8
:10072000820C8E010F5F1F4F680185E0C80ED11C3F
:10073000F80141918F0161E0C7010E9420030C156F
:100740001D05B1F740E061E0C7010E942003F701F9
:10075000848590E00696628570E00E94290F848768
:10076000892B79F4858590E00196638529E3629F62
:10077000612D1124669570E06F5F7F4F0E94290FF5
:10078000858781E090E00F900F900F900F900F9071
:10079000DF91CF911F910F91FF90EF90DF90CF905D
:1007A0000895FC013796EE0FFF1FEE0DFF1D00812F
:1007B00011810115110509F0B7CF45E050E068E659
:1007C00070E0ABCF90E080E0DECF4F925F926F920F
:1007D0007F928F929F92AF92BF92CF92DF92EF92D1
:1007E000FF920F931F93CF936B017C01742EAC018A
:1007F0009B010E940F0F882399F08CE091E0CF912C
:100800001F910F91FF90EF90DF90CF90BF90AF902E
:100810009F908F907F906F905F904F900C94CF023D
:1008200046015701E894B7F82FEF3FEF4FE75FE736
:10083000C501B4010E940F0F81110DC02FEF3FEFD2
:100840004FE75FE7C501B4010E94F80C18161CF4CD
:1008500080E191E0D4CF2FEF3FEF4FE75FE4C70196
:10086000B6010E94570E18161CF484E191E0C7CF20
:100870002FEF3FEF4FE75FECC701B6010E94F80C86
:1008800087FDF3CF20E030E0A901C701B6010E9447
:10089000F80C10E000E087FF0AC06DE28EE592E000
:1008A0000E946D038C01F7FAF094F7F8F094C0E021
:1008B00060E070E080E09FE37C1641F020E030E0F3
:1008C00040E251E40E94FD0CCF5FF6CFA7019601F4
:1008D0000E948C0C2B013C010E94760D4B015C01A7
:1008E0004AE00E94DC027C01E00EF11ECC23C1F143
:1008F000C501B4010E94A50D9B01AC01C301B20169
:100900000E948B0C4B015C016EE28EE592E00E942E
:100910006D03E80EF91EC15018F120E030E040E20E
:1009200051E4C501B4010E945C0E2B013C010E9400
:10093000760D4B01B12CA12C4AE0C501B4010E94F7
:10094000DC02E80EF91EC501B4010E94A50D9B0151
:10095000AC01C301B2010E948B0C4B015C01DBCFE7
:10096000C701CF911F910F91FF90EF90DF90CF9033
:10097000BF90AF909F908F907F906F905F904F90BF
:1009800008951F93CF93DF9385ED8093BC008091F2
:10099000250190912601A0912701B0912801079689
:1009A000A11DB11D23E0B695A795979587952A952A
:1009B000D1F72091BC0024FD03C010926D0152C0FC
:1009C00040912501509126016091270170912801E5
:1009D000452B462B472B69F30097A105B10541F044
:1009E0002AE22A95F1F700C00197A109B109E1CFE8
:1009F00080912401C1E0C0932301882399F1D09113
:100A0000B8001091BA008091BC008A7B8093BC0032
:100A100060E082E10E94960160E083E10E9496011D
:100A200010926D01C0936F0110926E0161E082E13E
:100A30000E94960161E083E10E9496018091B900D5
:100A40008E7F8093B9008091B9008D7F8093B9002B
:100A500088E48093B80085E48093BC001093BA00CA
:100A6000D093B800DF91CF911F9108951F920F92FC
:100A70000FB60F9211242F933F938F939F93AF93B1
:100A8000BF938091D0019091D101A091D201B091FA
:100A9000D3013091CF0123E0230F2D3758F5019674
:100AA000A11DB11D2093CF018093D0019093D1015E
:100AB000A093D201B093D3018091D4019091D5013C
:100AC000A091D601B091D7010196A11DB11D8093CF
:100AD000D4019093D501A093D601B093D701BF91D3
:100AE000AF919F918F913F912F910F900FBE0F90DB
:100AF0001F90189526E8230F0296A11DB11DD2CF95
:100B00001F920F920FB60F9211242F933F934F9382
:100B10005F936F937F938F939F93AF93BF93EF9365
:100B2000FF938091B900887F803609F44AC0F0F5C0
:100B3000883209F4A5C018F5803109F499C0B8F4D9
:100B4000882309F4F5C0883009F492C0FF91EF9131
:100B5000BF91AF919F918F917F916F915F914F91D5
:100B60003F912F910F900FBE0F901F9018958831D5
:100B700009F486C0803251F780936C0114C0803430
:100B800009F49BC040F48033B9F38833F9F68093BD
:100B90006C0185ECAEC0803509F483C0883509F45A
:100BA00094C0883499F60E94C104D0CF883909F4E2
:100BB0008AC038F5883729F050F4883611F080372C
:100BC00029F683E080936D0110926B0155C088383F
:100BD00009F479C0803919F0803809F0B7CF8091D5
:100BE0006B01803208F06FC0E0916B0181E08E0FE5
:100BF00080936B018091BB00F0E0E55BFE4F80834A
:100C00003BC0803B39F0D0F4803A09F477C0883A91
:100C100009F09CCF84E080936D0110924A011092FC
:100C20004901F0E0E0E009958091490181110FC090
:100C300081E0809349011092290109C0803C09F4A8
:100C4000A8CF883C09F4A5CF883B09F07FCFE0917D
:100C50004A0181E08E0F80934A01F0E0E75DFE4F8C
:100C600080818093BB0090914A018091490129C005
:100C7000809192018093BB0085EC8093BC0066CF8D
:100C80009091910180919001981758F5E091910110
:100C900081E08E0F80939101F0E0E059FE4F80815A
:100CA000E9CFE091910181E08E0F809391018091D5
:100CB000BB00F0E0E059FE4F80839091910180915C
:100CC00090019817C8F285E8D8CFE091910181E0B2
:100CD0008E0F809391018091BB00F0E0E059FE4FB0
:100CE000808380916F0181115ECF81E080936E01DE
:100CF00084EA8093BC0010926D0128CF85EC80932C
:100D0000BC0010926D0180916B01803230F4E09153
:100D10006B01F0E0E55BFE4F108260916B0170E0CB
:100D20008BE491E0F0E0E0E0099510926B010ECFCA
:100D300010926C0138CFEEE5F2E01382128284E06B
:100D400091E09183808383E0848384E0858385E0E0
:100D5000868386E0878387E0808783E393E3A3E34A
:100D6000BFE38093020290930302A0930402B09326
:100D700005020895CF93DF9300D000D000D0CDB707
:100D8000DEB7789484B5826084BD84B5816084BD0B
:100D900085B5826085BD85B5816085BD80916E0019
:100DA000816080936E00109281008091810082604A
:100DB0008093810080918100816080938100809187
:100DC00080008160809380008091B1008460809376
:100DD000B1008091B00081608093B00080917A0072
:100DE000846080937A0080917A00826080937A0098
:100DF00080917A00816080937A0080917A00806887
:100E000080937A001092C10084E58093680280E3A9
:100E1000809369021092670210926A0210926B022C
:100E2000ECE6F2E080E4DF011D928A95E9F780911B
:100E300062020E947701809163020E947701809193
:100E400064020E947701809165020E94770180917F
:100E500066020E94770161E0809165020E9496011E
:100E600061E0809166020E94960160E080916502D7
:100E70000E9496010E94180261E0809165020E9422
:100E8000960141E260E08EE592E00E94200343E19A
:100E900060E08EE592E00E9420038091670242ECC0
:100EA000813039F440EE60E08EE592E00E9420034C
:100EB00045E060E08EE592E00E94200340E260E0C1
:100EC0008EE592E00E94200349E060E08EE592E02A
:100ED0000E94200380E00E944E031A8219828091B2
:100EE000690286958695869590916802899FC001D2
:100EF000112429813A812817390768F440E061E01C
:100F00008EE592E00E94200349815A814F5F5F4F36
:100F10005A834983E4CF80E00E944E0348E060E0BA
:100F20008EE592E00E9420034CE060E08EE592E0C6
:100F30000E9420030E94180240E860E08EE592E0E3
:100F40000E94200340E460E08EE592E00E942003CE
:100F50001092BA0124E130E03093BC012093BB0130
:100F600040E050E060E879E34093BD015093BE015A
:100F70006093BF017093C0011092C3011092C4012D
:100F80001092C5011092C6011092C2011092C101C7
:100F900081E08093B8011092B9011092A1013093C1
:100FA000A3012093A2014093A4015093A501609353
:100FB000A6017093A7011092AA011092AB011092A2
:100FC000AC011092AD011092A9011092A80180937A
:100FD0009F011092A0018093FF018093FE0128E2FF
:100FE00030E0309301022093000200E010E020EA9C
:100FF0003BE300930C0210930D0220930E023093FA
:101000000F0240E050E060E275E34093100250931D
:101010001102609312027093130200931402109352
:101020001502209316023093170240931802509332
:10103000190260931A0270931B0240931C02509392
:101040001D0260931E0270931F0210922C021092D8
:101050002D0210922E0210922F0210923C0210923A
:101060003D0210923E0210923F02109248021092EE
:10107000490210924A0210924B0210920B021092F7
:101080000A028093FC011092FD010E94F301605F4F
:10109000784D8F4F9F4F609393017093940180938D
:1010A00095019093960180E0282E80E0382E11E083
:1010B00080E00E94E2017C019093CE018093CD01FB
:1010C00082E00E94E2019A8389839093CC0180930D
:1010D000CB018091FC01882309F4E0C10091FE015D
:1010E000002309F4E6C38091E8019091E901B7017A
:1010F000681B790B072E000C880B990B0E94A70D1B
:101100009B01AC012093D8013093D9014093DA01BF
:101110005093DB01609128027091290280912A028C
:1011200090912B020E948C0C6093280270932902EC
:1011300080932A0290932B028091EA019091EB0117
:1011400069817A81681B790B072E000C880B990B3B
:101150000E94A70D9B01AC012093DC013093DD01BF
:101160004093DE015093DF016091380270913902A3
:1011700080913A0290913B020E948C0C609338025D
:101180007093390280933A0290933B02C090D80149
:10119000D090D901E090DA01F090DB01A70196012F
:1011A000C701B6010E945C0E20912C0230912D02E5
:1011B00040912E0250912F020E948C0C2B013C0179
:1011C00040922C0250922D0260922E0270922F02B9
:1011D0008090DC019090DD01A090DE01B090DF01F5
:1011E000A5019401C501B4010E945C0E20913C024E
:1011F00030913D0240913E0250913F020E948C0C82
:1012000069837A838B839C8360933C0270933D0255
:1012100080933E0290933F02A5019401C701B6015D
:101220000E945C0E209148023091490240914A028E
:1012300050914B020E948C0C6093480270934902BB
:1012400080934A0290934B0220910A0230910B0244
:101250003E832D8320910002309101024D815E81F9
:101260004217530709F011C14092340250923502DF
:10127000609236027092370229813A814B815C81FB
:101280002093440230934502409346025093470214
:1012900060934C0270934D0280934E0290934F02E4
:1012A000002309F4CEC0C0900202D0900302E09067
:1012B0000402F0900502A701960160E070E080E86A
:1012C0009FE30E948B0C2B013C012091280230915E
:1012D000290240912A0250912B02C701B6010E94B7
:1012E0005C0E4B015C012091300230913102409143
:1012F000320250913302C301B2010E945C0E9B0185
:10130000AC01C501B4010E948C0C4B015C018092C0
:10131000300290923102A0923202B09233024D819B
:101320005E81BA01550F880B990B0E94A70D698346
:101330007A838B839C839B01AC01C501B4010E941D
:10134000FD0C4B015C0120E030E0A9010E94570E2A
:1013500020E030E040E05FE387FDCAC2C501B40190
:101360000E948C0C0E946F0D70930702609306021E
:101370008091E8019091E901680F791F7093E9016C
:101380006093E801209138023091390240913A028D
:1013900050913B02C701B6010E945C0E6B017C01BB
:1013A000209140023091410240914202509143020B
:1013B000C301B2010E945C0E9B01AC01C701B601E2
:1013C0000E948C0C60934002709341028093420211
:1013D0009093430229813A814B815C810E94FD0CEC
:1013E0006B017C0120E030E0A9010E94570E20E053
:1013F00030E040E05FE387FD80C2C701B6010E9494
:101400008C0C0E946F0D709309026093080280910A
:10141000EA019091EB01680F791F7093EB016093E3
:10142000EA01109228021092290210922A021092C8
:101430002B02109238021092390210923A02109246
:101440003B0210922C0210922D0210922E0210924A
:101450002F0210923C0210923D0210923E02109216
:101460003F02109248021092490210924A021092D2
:101470004B0210920B0210920A028091FF01882306
:1014800021F01092FC011093FD0180910A029091CD
:101490000B02019690930B0280930A028091CD017A
:1014A0009091CE019093B3018093B2012091B80145
:1014B000222309F448C0092E000CAA0BBB0B409153
:1014C000C3015091C4016091C5017091C601840FA0
:1014D000951FA61FB71F8093C3019093C401A093CB
:1014E000C501B093C6014091BB015091BC01209150
:1014F000C1013091C20124173507E4F08093C70180
:101500009093C801A093C901B093CA011092C3017E
:101510001092C4011092C5011092C6011092C2012E
:101520001092C1018091BA01882321F01092B80174
:101530001093B9018091C1019091C20101969093DD
:10154000C2018093C1018091CB019091CC01909315
:101550009A018093990120919F01222309F448C0A8
:10156000092E000CAA0BBB0B4091AA015091AB01B4
:101570006091AC017091AD01840F951FA61FB71F3C
:101580008093AA019093AB01A093AC01B093AD01FD
:101590004091A2015091A3012091A8013091A9018D
:1015A00024173507E4F08093AE019093AF01A09328
:1015B000B001B093B1011092AA011092AB01109248
:1015C000AC011092AD011092A9011092A801809176
:1015D000A101882321F010929F011093A001809116
:1015E000A8019091A90101969093A9018093A80167
:1015F0008091970190919801019690939801809322
:1016000097018A3F91050CF430C12091100230916E
:1016100011024091120250911302609134027091B4
:10162000350280913602909137020E945C0E6093E1
:1016300020027093210280932202909323020E9441
:10164000CF0E6B017C01C092E001D092E101E092EB
:10165000E201F092E30120911802309119024091C9
:101660001A0250911B0260914402709145028091D0
:101670004602909147020E945C0E60932402709390
:10168000250280932602909327020E94CF0E9B0191
:10169000AC012093E4013093E5014093E6015093BF
:1016A000E701C701B6010E945C0E6B017C01C0928C
:1016B000EC01D092ED01E092EE01F092EF01209169
:1016C0001C0230911D0240911E0250911F02609138
:1016D0004C0270914D0280914E0290914F020E94F7
:1016E0005C0E6093F0017093F1018093F20190938E
:1016F000F301A70196010E94FD0C6093F401709321
:10170000F5018093F6019093F7012FB7F89480913B
:10171000D0019091D101A091D201B091D3012FBFFE
:101720008093500290935102A0935202B0935302BF
:101730002091540230915502BC01621B730B7093CF
:101740005902609358028093540290935502A093DB
:101750005602B093570290E080E00E94A50D2091C0
:101760004C0230914D0240914E0250914F020E9426
:101770005C0E20915A0230915B0240915C025091C4
:101780005D020E948C0C60935A0270935B028093FE
:101790005C0290935D0220911C0230911D024091E9
:1017A0001E0250911F020E945C0E20E030E04AE7CA
:1017B00054E40E94FD0C6093F8017093F90180934A
:1017C000FA019093FB011092FD0180E00E944E030C
:1017D0006091E0017091E1018091E2019091E3015B
:1017E00042E00E94E50388E191E00E94CF0281E09F
:1017F0000E944E036091E4017091E5018091E60141
:101800009091E70142E00E94E5038AE191E00E94A5
:10181000CF0282E00E944E036091F0017091F101CD
:101820008091F2019091F30142E00E94E5038CE186
:1018300091E00E94CF0283E00E944E036091F40188
:101840007091F5018091F6019091F70142E00E94BC
:10185000E5038EE191E00E94CF0210929801109270
:1018600097011093FC011092FD010E94F301C090BA
:101870009301D0909401E0909501F09096016C1541
:101880007D058E059F0588F3D701C601805F984DC1
:10189000AF4FBF4F8093930190939401A093950114
:1018A000B09396012114310409F402CC0E94000087
:1018B000FFCBB701FF0C880B990B0E94A70D60931B
:1018C000D8017093D9018093DA019093DB01A9814B
:1018D000BA81BD01BB0F880B990B0E94A70D6093C5
:1018E000DC017093DD018093DE019093DF014ECC2B
:1018F000C501B4010E948B0C35CDC701B6010E9411
:101900008B0C7FCDFB01DC0102C005900D92415094
:101910005040D8F708955058BB27AA270E94A30C1F
:101920000C941D0E0E940F0E38F00E94160E20F02F
:1019300039F49F3F19F426F40C940C0E0EF4E09544
:10194000E7FB0C94060EE92F0E942E0E58F3BA17EF
:10195000620773078407950720F079F4A6F50C94C5
:10196000500E0EF4E0950B2EBA2FA02D0B01B901ED
:1019700090010C01CA01A0011124FF27591B99F005
:10198000593F50F4503E68F11A16F040A22F232F11
:10199000342F4427585FF3CF469537952795A79561
:1019A000F0405395C9F77EF41F16BA0B620B730B08
:1019B000840BBAF09150A1F0FF0FBB1F661F771F79
:1019C000881FC2F70EC0BA0F621F731F841F48F42E
:1019D000879577956795B795F7959E3F08F0B0CFB7
:1019E0009395880F08F09927EE0F9795879508959E
:1019F0000E94E20D08F481E008950E94110D0C94FC
:101A00001D0E0E94160E58F00E940F0E40F029F491
:101A10005F3F29F00C94060E51110C94510E0C945A
:101A20000C0E0E942E0E68F39923B1F3552391F307
:101A3000951B550BBB27AA2762177307840738F03D
:101A40009F5F5F4F220F331F441FAA1FA9F335D09A
:101A50000E2E3AF0E0E832D091505040E695001C4E
:101A6000CAF72BD0FE2F29D0660F771F881FBB1F08
:101A7000261737074807AB07B0E809F0BB0B802DE6
:101A8000BF01FF2793585F4F3AF09E3F510578F012
:101A90000C94060E0C94510E5F3FE4F3983ED4F381
:101AA000869577956795B795F7959F5FC9F7880FE6
:101AB000911D9695879597F90895E1E0660F771F38
:101AC000881FBB1F621773078407BA0720F0621BC9
:101AD000730B840BBA0BEE1F88F7E09508950E94F4
:101AE000760D6894B1110C94510E08950E94360E33
:101AF00088F09F5798F0B92F9927B751B0F0E1F0CF
:101B0000660F771F881F991F1AF0BA95C9F714C07E
:101B1000B13091F00E94500EB1E008950C94500E37
:101B2000672F782F8827B85F39F0B93FCCF38695B7
:101B300077956795B395D9F73EF490958095709514
:101B400061957F4F8F4F9F4F0895E89409C097FB91
:101B50003EF490958095709561957F4F8F4F9F4F84
:101B60009923A9F0F92F96E9BB279395F6958795C8
:101B700077956795B795F111F8CFFAF4BB0F11F48B
:101B800060FF1BC06F5F7F4F8F4F9F4F16C0882332
:101B900011F096E911C0772321F09EE8872F762F68
:101BA00005C0662371F096E8862F70E060E02AF0A9
:101BB0009A95660F771F881FDAF7880F9695879595
:101BC00097F90895990F0008550FAA0BE0E8FEEF6A
:101BD00016161706E807F907C0F012161306E407F1
:101BE000F50798F0621B730B840B950B39F40A26EA
:101BF00061F0232B242B252B21F408950A2609F4C8
:101C0000A140A6958FEF811D811D089597F99F67CB
:101C100080E870E060E008959FEF80EC0895002474
:101C20000A941616170618060906089500240A9441
:101C300012161306140605060895092E0394000CC7
:101C400011F4882352F0BB0F40F4BF2B11F460FF56
:101C500004C06F5F7F4F8F4F9F4F089557FD90587F
:101C6000440F551F59F05F3F71F04795880F97FB60
:101C7000991F61F09F3F79F087950895121613061A
:101C80001406551FF2CF4695F1DF08C01616170649
:101C90001806991FF1CF869571056105089408957E
:101CA000E894BB2766277727CB0197F908950E9410
:101CB000E20D08F48FEF08950E946F0E0C941D0E34
:101CC0000E940F0E38F00E94160E20F0952311F09E
:101CD0000C94060E0C940C0E11240C94510E0E94C0
:101CE0002E0E70F3959FC1F3950F50E0551F629F24
:101CF000F001729FBB27F00DB11D639FAA27F00D65
:101D0000B11DAA1F649F6627B00DA11D661F829F8B
:101D10002227B00DA11D621F739FB00DA11D621F70
:101D2000839FA00D611D221F749F3327A00D611D8D
:101D3000231F849F600D211D822F762F6A2F11246F
:101D40009F5750409AF0F1F088234AF0EE0FFF1FA2
:101D5000BB1F661F771F881F91505040A9F79E3FF9
:101D6000510580F00C94060E0C94510E5F3FE4F385
:101D7000983ED4F3869577956795B795F795E7954F
:101D80009F5FC1F7FE2B880F911D9695879597F958
:101D9000089519F416F40C940C0E0C94140F0E9470
:101DA000360EB8F39923C9F3B6F39F57550B87FF47
:101DB0000E94220F0024A0E640EA90018058569528
:101DC000979528F4805C660F771F881F20F02617F0
:101DD0003707480730F4621B730B840B2029312925
:101DE0004A2BA69517940794202531254A2758F7A2
:101DF000660F771F881F20F026173707480730F433
:101E0000620B730B840B200D311D411DA09581F7D2
:101E1000B901842F9158880F9695879508950E944F
:101E2000E20D880B990B08959F3F31F0915020F4FB
:101E3000879577956795B795880F911D96958795A6
:101E400097F9089591505040660F771F881FD2F779
:101E5000089597FB072E16F4009407D077FD09D05C
:101E60000E945F0F07FC05D03EF4909581959F4F2F
:101E70000895709561957F4F0895A1E21A2EAA1BCF
:101E8000BB1BFD010DC0AA1FBB1FEE1FFF1FA2172A
:101E9000B307E407F50720F0A21BB30BE40BF50B27
:101EA000661F771F881F991F1A9469F760957095B0
:101EB000809590959B01AC01BD01CF010895AA1BAF
:101EC000BB1B51E107C0AA1FBB1FA617B70710F025
:101ED000A61BB70B881F991F5A95A9F78095909557
:101EE000BC01CD010895EE0FFF1F0590F491E02D88
:061EF0000994F894FFCFF5
:101EF600000000006D034D02CC027A026E616E0096
:101F0600696E66006F76660056004100570070667F
:021F16000000C9
:00000001FF
