:100000000C944D010C9475010C9475010C947501C0
:100010000C9475010C9475010C9475010C94750188
:100020000C9475010C9475010C9475010C94750178
:100030000C9475010C9475010C9475010C94750168
:100040000C9436050C9475010C9475010C94750193
:100050000C9475010C9475010C9475010C94750148
:100060000C9480050C947501000000000000005FF6
:1000700000000007000700147F147F14242A7F2A41
:10008000122313086462364955225000050300000C
:10009000001C2241000041221C0014083E081408E4
:1000A000083E0808005030000008080808080060F2
:1000B00060000020100804023E5149453E00427F86
:1000C000400042615149462141454B311814127F8D
:1000D0001027454545393C4A494930017109050316
:1000E0003649494936064949291E0036360000007E
:1000F0005636000008142241001414141414004150
:100100002214080201510906324979413E7E11113B
:10011000117E7F494949363E414141227F4141227A
:100120001C7F494949417F090909013E4149497AF2
:100130007F0808087F00417F41002040413F017F48
:10014000081422417F404040407F020C027F7F0420
:1001500008107F3E4141413E7F090909063E415159
:10016000215E7F09192946464949493101017F012C
:10017000013F4040403F1F2040201F3F4038403F4C
:100180006314081463070870080761514945430068
:100190007F41410002040810200041417F00040219
:1001A0000102044040404040000102040020545439
:1001B00054787F48444438384444442038444448C0
:1001C0007F3854545418087E0901020C5252523E92
:1001D0007F0804047800447D40002040443D007FB7
:1001E0001028440000417F40007C041804787C08FB
:1001F00004047838444444387C1414140808141453
:10020000187C7C080404084854545420043F44409B
:10021000203C4040207C1C2040201C3C4030403C86
:1002200044281028440C5050503C4464544C440022
:100230000836410000007F00000041360800100829
:100240000810080000000000000000080002010083
:100250000003040700000000000000000000000090
:10026000250028002B0000000000240027002A00A1
:10027000040404040404040402020202020203034C
:100280000303030301020408102040800102040854
:1002900010200102040810209B0611241FBECFEF7E
:1002A000D8E0DEBFCDBF11E0A0E0B1E0E0EEFCE1C0
:1002B00002C005900D92AE31B107D9F722E0AEE150
:1002C000B1E001C01D92A83AB207E1F711E0CDE418
:1002D000D1E004C02197FE010E94680ECC34D10702
:1002E000C9F70E94BA060C946E0E0C94000090E0C0
:1002F000FC01EC57FD4F249180599D4FFC018491E6
:10030000882399F090E0880F991FFC01EA59FD4F6E
:10031000A591B491FC01E45AFD4F859194918FB75A
:10032000F894EC91E22BEC938FBF089590E0FC01E0
:10033000E85BFD4F2491FC01EC57FD4F3491FC012B
:10034000E059FD4FE491EE23C9F0222339F0233028
:1003500001F1A8F4213019F1223029F1F0E0EE0F7B
:10036000FF1FE45AFD4FA591B4918FB7F894EC911B
:10037000611126C030953E233C938FBF08952730EE
:10038000A9F02830C9F0243049F7809180008F7D92
:1003900003C0809180008F7780938000DFCF84B589
:1003A0008F7784BDDBCF84B58F7DFBCF8091B0008C
:1003B0008F778093B000D2CF8091B0008F7DF9CF3E
:1003C0003E2BDACF806480937C0080917A00806439
:1003D00080937A0080917A0086FDFCCF809178002E
:1003E0009091790008953FB7F8948091D001909151
:1003F000D101A091D201B091D30126B5A89B05C02F
:100400002F3F19F00196A11DB11D3FBFBA2FA92F93
:10041000982F8827BC01CD01620F711D811D911D90
:1004200042E0660F771F881F991F4A95D1F70895FC
:100430008F929F92AF92BF92CF92DF92EF92FF92F4
:100440000E94F3014B015C0184E6C82ED12CE12C03
:10045000F12C0E94F301681979098A099B09683E09
:10046000734081059105A8F321E0C21AD108E10883
:10047000F10888EE880E83E0981EA11CB11CC114FF
:10048000D104E104F10429F7FF90EF90DF90CF90C1
:10049000BF90AF909F908F900895AF92BF92CF92F0
:1004A000DF92EF92FF920F931F93CF93DF936C0134
:1004B0007B018B01040F151FEB015E01AE18BF0815
:1004C000C017D10759F06991D601ED91FC910190C7
:1004D000F081E02DC6010995892B79F7C501DF91DF
:1004E000CF911F910F91FF90EF90DF90CF90BF9031
:1004F000AF900895089520914501260F3327331FAB
:1005000021323105ECF420916901FC0190E080E09A
:10051000243069F082E00895A09145012191AC0159
:100520004B5D5E4FA40FB52FB11D2C93019686171E
:1005300098F380914501680F6093450180E008952C
:1005400081E0089508958FEF9FEF08958FEF9FEF5B
:10055000089580911E0190E09195819591090895EB
:10056000CF93DF93CB01EA01642F0E947B02CE017F
:10057000DF91CF910895CF93DF931F92CDB7DEB770
:10058000698361E0CE0101960E947B0281E090E0E8
:100590000F90DF91CF91089590E080E00895FC01E5
:1005A00001900020E9F73197AF01481B590BBC01BE
:1005B0008AE592E00C944D028F929F92AF92BF9287
:1005C0000F931F93CF93DF93CDB7DEB7A1970FB6ED
:1005D000F894DEBF0FBECDBF19A2423008F44AE046
:1005E0008E010F5D1F4F842E912CB12CA12CA501E3
:1005F00094010E94320EE62FB901CA01EA30F4F4E8
:10060000E05DD801EE938D01232B242B252B79F768
:1006100090E080E0109719F0CD010E94CF02A196E2
:100620000FB6F894DEBF0FBECDBFDF91CF911F9103
:100630000F91BF90AF909F908F900895E95CE1CFAC
:10064000EF92FF920F931F93CF93DF93EC01042F50
:100650008E810E94960160E088850E949601FC8050
:10066000ED8018E0602F661F6627661F8E2D0E94A2
:100670009601000F61E08F2D0E94960160E08F2DA2
:100680000E949601115071F761E08885DF91CF914A
:100690001F910F91FF90EF900C949601CF93DF93F1
:1006A000CAE5D2E01C8690E06B8529E3629F612D4C
:1006B0001124669570E06F5F7F4F0E941E0E8D873C
:1006C00040E860E0CE010E9420034D85406460E078
:1006D000CE01DF91CF910C942003CF92DF92EF9265
:1006E000FF920F931F93CF93DF9300D000D01F9200
:1006F000CDB7DEB767FD66C07C01862F90E0603223
:1007000008F44FC0809725E0289FB001299F700D05
:10071000112468597F4F45E050E0CE0101960E94B8
:10072000D20B8E010F5F1F4F680185E0C80ED11CF0
:10073000F80141918F0161E0C7010E9420030C156F
:100740001D05B1F740E061E0C7010E942003F701F9
:10075000848590E00696628570E00E941E0E848774
:10076000892B79F4858590E00196638529E3629F62
:10077000612D1124669570E06F5F7F4F0E941E0E01
:10078000858781E090E00F900F900F900F900F9071
:10079000DF91CF911F910F91FF90EF90DF90CF905D
:1007A0000895FC013796EE0FFF1FEE0DFF1D00812F
:1007B00011810115110509F0B7CF45E050E068E659
:1007C00070E0ABCF90E080E0DECF4F925F926F920F
:1007D0007F928F929F92AF92BF92CF92DF92EF92D1
:1007E000FF920F931F93CF936B017C01742EAC018A
:1007F0009B010E94190E882399F08CE091E0CF9123
:100800001F910F91FF90EF90DF90CF90BF90AF902E
:100810009F908F907F906F905F904F900C94CF023D
:1008200046015701E894B7F82FEF3FEF4FE75FE736
:10083000C501B4010E94190E81110DC02FEF3FEFC9
:100840004FE75FE7C501B4010E94480C18161CF47D
:1008500080E191E0D4CF2FEF3FEF4FE75FE4C70196
:10086000B6010E94A70D18161CF484E191E0C7CFD1
:100870002FEF3FEF4FE75FECC701B6010E94480C36
:1008800087FDF3CF20E030E0A901C701B6010E9447
:10089000480C10E000E087FF0AC06DE28AE592E0B4
:1008A0000E946D038C01F7FAF094F7F8F094C0E021
:1008B00060E070E080E09FE37C1641F020E030E0F3
:1008C00040E251E40E944D0CCF5FF6CFA7019601A4
:1008D0000E94DC0B2B013C010E94C60C4B015C0109
:1008E0004AE00E94DC027C01E00EF11ECC23C1F143
:1008F000C501B4010E94F50C9B01AC01C301B2011A
:100900000E94DB0B4B015C016EE28AE592E00E94E3
:100910006D03E80EF91EC15018F120E030E040E20E
:1009200051E4C501B4010E94AC0D2B013C010E94B1
:10093000C60C4B01B12CA12C4AE0C501B4010E94A8
:10094000DC02E80EF91EC501B4010E94F50C9B0102
:10095000AC01C301B2010E94DB0B4B015C01DBCF98
:10096000C701CF911F910F91FF90EF90DF90CF9033
:10097000BF90AF909F908F907F906F905F904F90BF
:1009800008951F93CF93DF9385ED8093BC008091F2
:10099000210190912201A0912301B0912401079699
:1009A000A11DB11D23E0B695A795979587952A952A
:1009B000D1F72091BC0024FD03C01092690152C000
:1009C00040912101509122016091230170912401F5
:1009D000452B462B472B69F30097A105B10541F044
:1009E0002AE22A95F1F700C00197A109B109E1CFE8
:1009F00080912001C1E0C0931F01882399F1D0911B
:100A0000B8001091BA008091BC008A7B8093BC0032
:100A100060E082E10E94960160E083E10E9496011D
:100A200010926901C0936B0110926A0161E082E14A
:100A30000E94960161E083E10E9496018091B900D5
:100A40008E7F8093B9008091B9008D7F8093B9002B
:100A500088E48093B80085E48093BC001093BA00CA
:100A6000D093B800DF91CF911F9108951F920F92FC
:100A70000FB60F9211242F933F938F939F93AF93B1
:100A8000BF938091CC019091CD01A091CE01B09106
:100A9000CF013091CB0123E0230F2D3758F501967C
:100AA000A11DB11D2093CB018093CC019093CD016A
:100AB000A093CE01B093CF018091D0019091D1014C
:100AC000A091D201B091D3010196A11DB11D8093D7
:100AD000D0019093D101A093D201B093D301BF91E3
:100AE000AF919F918F913F912F910F900FBE0F90DB
:100AF0001F90189526E8230F0296A11DB11DD2CF95
:100B00001F920F920FB60F9211242F933F934F9382
:100B10005F936F937F938F939F93AF93BF93EF9365
:100B2000FF938091B900887F803609F44AC0F0F5C0
:100B3000883209F4A5C018F5803109F499C0B8F4D9
:100B4000882309F4F5C0883009F492C0FF91EF9131
:100B5000BF91AF919F918F917F916F915F914F91D5
:100B60003F912F910F900FBE0F901F9018958831D5
:100B700009F486C0803251F78093680114C0803434
:100B800009F49BC040F48033B9F38833F9F68093BD
:100B9000680185ECAEC0803509F483C0883509F45E
:100BA00094C0883499F60E94C104D0CF883909F4E2
:100BB0008AC038F5883729F050F4883611F080372C
:100BC00029F683E0809369011092670155C0883847
:100BD00009F479C0803919F0803809F0B7CF8091D5
:100BE0006701803208F06FC0E091670181E08E0FED
:100BF000809367018091BB00F0E0E95BFE4F80834A
:100C00003BC0803B39F0D0F4803A09F477C0883A91
:100C100009F09CCF84E08093690110924601109204
:100C20004501F0E0E0E009958091450181110FC098
:100C300081E0809345011092250109C0803C09F4B0
:100C4000A8CF883C09F4A5CF883B09F07FCFE0917D
:100C5000460181E08E0F80934601F0E0EB5DFE4F90
:100C600080818093BB00909146018091450129C00D
:100C700080918E018093BB0085EC8093BC0066CF91
:100C800090918D0180918C01981758F5E0918D011C
:100C900081E08E0F80938D01F0E0E459FE4F80815A
:100CA000E9CFE0918D0181E08E0F80938D018091DD
:100CB000BB00F0E0E459FE4F808390918D0180915C
:100CC0008C019817C8F285E8D8CFE0918D0181E0BA
:100CD0008E0F80938D018091BB00F0E0E459FE4FB0
:100CE000808380916B0181115ECF81E080936A01E6
:100CF00084EA8093BC001092690128CF85EC809330
:100D0000BC001092690180916701803230F4E0915B
:100D10006701F0E0E95BFE4F10826091670170E0CF
:100D200087E491E0F0E0E0E00995109267010ECFD2
:100D30001092680138CFEAE5F2E01382128284E073
:100D400091E09183808383E0848384E0858385E0E0
:100D5000868386E0878387E0808783E393E3A3E34A
:100D6000BFE38093FE019093FF01A0930002B09334
:100D700001020895CF93DF9300D000D000D0CDB70B
:100D8000DEB7789484B5826084BD84B5816084BD0B
:100D900085B5826085BD85B5816085BD80916E0019
:100DA000816080936E00109281008091810082604A
:100DB0008093810080918100816080938100809187
:100DC00080008160809380008091B1008460809376
:100DD000B1008091B00081608093B00080917A0072
:100DE000846080937A0080917A00826080937A0098
:100DF00080917A00816080937A0080917A00806887
:100E000080937A001092C10084E58093640280E3AD
:100E1000809365021092630210926602109267023C
:100E2000E8E6F2E080E4DF011D928A95E9F780911F
:100E30005E020E94770180915F020E94770180919B
:100E400060020E947701809161020E947701809187
:100E500062020E94770161E0809161020E94960126
:100E600061E0809162020E94960160E080916102DF
:100E70000E9496010E94180261E0809161020E9426
:100E8000960141E260E08AE592E00E94200343E19E
:100E900060E08AE592E00E9420038091630242ECC8
:100EA000813039F440EE60E08AE592E00E94200350
:100EB00045E060E08AE592E00E94200340E260E0C5
:100EC0008AE592E00E94200349E060E08AE592E032
:100ED0000E94200380E00E944E031A8219828091B2
:100EE000650286958695869590916402899FC001DA
:100EF000112429813A812817390768F440E061E01C
:100F00008AE592E00E94200349815A814F5F5F4F3A
:100F10005A834983E4CF80E00E944E0348E060E0BA
:100F20008AE592E00E9420034CE060E08AE592E0CE
:100F30000E9420030E94180240E860E08AE592E0E7
:100F40000E94200340E460E08AE592E00E942003D2
:100F50001092B60124E130E03093B8012093B7013C
:100F600040E050E060E879E34093B9015093BA0162
:100F70006093BB017093BC011092BF011092C0013D
:100F80001092C1011092C2011092BE011092BD01D7
:100F900081E08093B4011092B50110929D013093CD
:100FA0009F0120939E014093A0015093A101609363
:100FB000A2017093A3011092A6011092A7011092B2
:100FC000A8011092A9011092A5011092A40180938A
:100FD0009B0110929C018093FB018093FA0128E20F
:100FE00030E03093FD012093FC0100E010E020EAA6
:100FF0003BE3009308021093090220930A02309306
:101000000B0240E050E060E275E340930C02509325
:101010000D0260930E0270930F0200931002109362
:101020001102209312023093130240931402509342
:1010300015026093160270931702409318025093A2
:10104000190260931A0270931B02109228021092E8
:10105000290210922A0210922B021092380210924A
:10106000390210923A0210923B02109244021092FE
:101070004502109246021092470210920702109207
:1010800006028093F8011092F9010E94F301605F5B
:10109000784D8F4F9F4F60938F0170939001809395
:1010A00091019093920180E0282E80E0382E11E08B
:1010B00080E00E94E2017C019093CA018093C90103
:1010C00082E00E94E2019A8389839093C801809311
:1010D000C7018091F801882309F4E0C10091FA0169
:1010E000002309F436C38091E4019091E501B70132
:1010F000681B790B072E000C880B990B0E94F70CCC
:101100009B01AC012093D4013093D5014093D601CB
:101110005093D7016091240270912502809126029C
:10112000909127020E94DC0B6093240270932502A9
:1011300080932602909327028091E6019091E70127
:1011400069817A81681B790B072E000C880B990B3B
:101150000E94F70C9B01AC012093D8013093D90178
:101160004093DA015093DB016091340270913502B3
:1011700080913602909137020E94DC0B609334021A
:10118000709335028093360290933702C090D40159
:10119000D090D501E090D601F090D701A70196013B
:1011A000C701B6010E94AC0D20912802309129029E
:1011B00040912A0250912B020E94DC0B2B013C0132
:1011C000409228025092290260922A0270922B02C9
:1011D0008090D8019090D901A090DA01B090DB0105
:1011E000A5019401C501B4010E94AC0D2091380203
:1011F0003091390240913A0250913B020E94DC0B3F
:1012000069837A838B839C8360933802709339025D
:1012100080933A0290933B02A5019401C701B60165
:101220000E94AC0D2091440230914502409146024B
:10123000509147020E94DC0B609344027093450278
:101240008093460290934702209106023091070254
:101250003E832D832091FC013091FD014D815E8103
:101260004217530709F011C14092300250923102E7
:10127000609232027092330229813A814B815C8103
:101280002093400230934102409342025093430224
:10129000609348027093490280934A0290934B02F4
:1012A000002309F4CEC0C090FE01D090FF01E09071
:1012B0000002F0900102A701960160E070E080E872
:1012C0009FE30E94DB0B2B013C0120912402309113
:1012D00025024091260250912702C701B6010E94C3
:1012E000AC0D4B015C0120912C0230912D024091FC
:1012F0002E0250912F02C301B2010E94AC0D9B013E
:10130000AC01C501B4010E94DC0B4B015C01809271
:101310002C0290922D02A0922E02B0922F024D81AB
:101320005E81BA01550F880B990B0E94F70C6983F7
:101330007A838B839C839B01AC01C501B4010E941D
:101340004D0C4B015C0120E030E0A9010E94A70D8B
:1013500020E030E040E05FE387FD1AC2C501B40140
:101360000E94DC0B0E94BF0C709303026093020288
:101370008091E4019091E501680F791F7093E50178
:101380006093E4012091340230913502409136029D
:1013900050913702C701B6010E94AC0D6B017C0170
:1013A00020913C0230913D0240913E0250913F021B
:1013B000C301B2010E94AC0D9B01AC01C701B60193
:1013C0000E94DC0B60933C0270933D0280933E02CE
:1013D00090933F0229813A814B815C810E944D0CA0
:1013E0006B017C0120E030E0A9010E94A70D20E004
:1013F00030E040E05FE387FDD0C1C701B6010E9445
:10140000DC0B0E94BF0C7093050260930402809174
:10141000E6019091E701680F791F7093E7016093EF
:10142000E6011092240210922502109226021092D8
:101430002702109234021092350210923602109256
:101440003702109228021092290210922A0210925A
:101450002B02109238021092390210923A02109226
:101460003B021092440210924502109246021092E2
:10147000470210920702109206028091FB01882316
:1014800021F01092F8011093F901809106029091D9
:101490000702019690930702809306028091C9018A
:1014A0009091CA019093AF018093AE012091B40155
:1014B000222309F448C0092E000CAA0BBB0B409153
:1014C000BF015091C0016091C1017091C201840FB0
:1014D000951FA61FB71F8093BF019093C001A093D3
:1014E000C101B093C2014091B7015091B801209160
:1014F000BD013091BE0124173507E4F08093C3018C
:101500009093C401A093C501B093C6011092BF018E
:101510001092C0011092C1011092C2011092BE013E
:101520001092BD018091B601882321F01092B40180
:101530001093B5018091BD019091BE0101969093E9
:10154000BE018093BD018091C7019091C801909325
:1015500096018093950120919B01222309F448C0B4
:10156000092E000CAA0BBB0B4091A6015091A701BC
:101570006091A8017091A901840F951FA61FB71F44
:101580008093A6019093A701A093A801B093A9010D
:1015900040919E0150919F012091A4013091A5019D
:1015A00024173507E4F08093AA019093AB01A09330
:1015B000AC01B093AD011092A6011092A701109258
:1015C000A8011092A9011092A5011092A401809186
:1015D0009D01882321F010929B0110939C01809122
:1015E000A4019091A50101969093A5018093A40177
:1015F000809193019091940101969093940180932E
:101600009301843691050CF480C06091C301709100
:10161000C4018091C5019091C6010E94F70C2091F0
:10162000B9013091BA014091BB015091BC010E94B7
:10163000AC0D6093B0017093B1018093B2019093AF
:10164000B3011092B5016091AA017091AB01809134
:10165000AC019091AD010E94F70C2091A001309156
:10166000A1014091A2015091A3010E94AC0D609391
:101670009701709398018093990190939A01109229
:101680009C0181E00E944E036091B0017091B10114
:101690008091B2019091B30142E00E94E50388E19C
:1016A00091E00E94CF0282E00E944E036091970178
:1016B000709198018091990190919A0142E00E9465
:1016C000E5038AE191E00E94CF0283E00E944E038D
:1016D00020919701309198014091990150919A0180
:1016E0006091B0017091B1018091B2019091B3010C
:1016F0000E94AC0D42E00E94E5038CE191E00E9463
:10170000CF0210929401109293010E94F301C090B5
:101710008F01D0909001E0909101F09092016C15B2
:101720007D058E059F0588F3D701C601805F984D22
:10173000AF4FBF4F80938F0190939001A093910181
:10174000B09392012114310409F4B2CC0E9400003C
:10175000AFCCB701FF0C880B990B0E94F70C60937C
:10176000D4017093D5018093D6019093D701A981BC
:10177000BA81BD01BB0F880B990B0E94F70C6093D7
:10178000D8017093D9018093DA019093DB01FECCEC
:10179000C501B4010E94DB0BE5CDC701B6010E9473
:1017A000DB0B2FCEFB01DC0102C005900D924150F6
:1017B0005040D8F708955058BB27AA270E94F30B32
:1017C0000C946D0D0E945F0D38F00E94660D20F0A4
:1017D00039F49F3F19F426F40C945C0D0EF4E09557
:1017E000E7FB0C94560DE92F0E947E0D58F3BA17B3
:1017F000620773078407950720F079F4A6F50C9427
:10180000A00D0EF4E0950B2EBA2FA02D0B01B901FF
:1018100090010C01CA01A0011124FF27591B99F066
:10182000593F50F4503E68F11A16F040A22F232F72
:10183000342F4427585FF3CF469537952795A795C2
:10184000F0405395C9F77EF41F16BA0B620B730B69
:10185000840BBAF09150A1F0FF0FBB1F661F771FDA
:10186000881FC2F70EC0BA0F621F731F841F48F48F
:10187000879577956795B795F7959E3F08F0B0CF18
:101880009395880F08F09927EE0F979587950895FF
:101890000E94320D08F481E008950E94610C0C94BE
:1018A0006D0D0E94660D58F00E945F0D40F029F406
:1018B0005F3F29F00C94560D51110C94A10D0C941E
:1018C0005C0D0E947E0D68F39923B1F3552391F3CB
:1018D000951B550BBB27AA2762177307840738F09F
:1018E0009F5F5F4F220F331F441FAA1FA9F335D0FC
:1018F0000E2E3AF0E0E832D091505040E695001CB0
:10190000CAF72BD0FE2F29D0660F771F881FBB1F69
:10191000261737074807AB07B0E809F0BB0B802D47
:10192000BF01FF2793585F4F3AF09E3F510578F073
:101930000C94560D0C94A10D5F3FE4F3983ED4F344
:10194000869577956795B795F7959F5FC9F7880F47
:10195000911D9695879597F90895E1E0660F771F99
:10196000881FBB1F621773078407BA0720F0621B2A
:10197000730B840BBA0BEE1F88F7E09508950E9455
:10198000C60C6894B1110C94A10D08950E94860DA7
:1019900088F09F5798F0B92F9927B751B0F0E1F030
:1019A000660F771F881F991F1AF0BA95C9F714C0E0
:1019B000B13091F00E94A00DB1E008950C94A00DFB
:1019C000672F782F8827B85F39F0B93FCCF3869519
:1019D00077956795B395D9F73EF490958095709576
:1019E00061957F4F8F4F9F4F0895E89409C097FBF3
:1019F0003EF490958095709561957F4F8F4F9F4FE6
:101A00009923A9F0F92F96E9BB279395F695879529
:101A100077956795B795F111F8CFFAF4BB0F11F4EC
:101A200060FF1BC06F5F7F4F8F4F9F4F16C0882393
:101A300011F096E911C0772321F09EE8872F762FC9
:101A400005C0662371F096E8862F70E060E02AF00A
:101A50009A95660F771F881FDAF7880F96958795F6
:101A600097F90895990F0008550FAA0BE0E8FEEFCB
:101A700016161706E807F907C0F012161306E40752
:101A8000F50798F0621B730B840B950B39F40A264B
:101A900061F0232B242B252B21F408950A2609F429
:101AA000A140A6958FEF811D811D089597F99F672D
:101AB00080E870E060E008959FEF80EC08950024D6
:101AC0000A941616170618060906089500240A94A3
:101AD00012161306140605060895092E0394000C29
:101AE00011F4882352F0BB0F40F4BF2B11F460FFB8
:101AF00004C06F5F7F4F8F4F9F4F089557FD9058E1
:101B0000440F551F59F05F3F71F04795880F97FBC1
:101B1000991F61F09F3F79F087950895121613067B
:101B20001406551FF2CF4695F1DF08C016161706AA
:101B30001806991FF1CF86957105610508940895DF
:101B4000E894BB2766277727CB0197F908950E9471
:101B5000320D08F48FEF08950E94BF0D0C946D0DA7
:101B60000E945F0D38F00E94660D20F0952311F061
:101B70000C94560D0C945C0D11240C94A10D0E9434
:101B80007E0D70F3959FC1F3950F50E0551F629F36
:101B9000F001729FBB27F00DB11D639FAA27F00DC6
:101BA000B11DAA1F649F6627B00DA11D661F829FED
:101BB0002227B00DA11D621F739FB00DA11D621FD2
:101BC000839FA00D611D221F749F3327A00D611DEF
:101BD000231F849F600D211D822F762F6A2F1124D1
:101BE0009F5750409AF0F1F088234AF0EE0FFF1F04
:101BF000BB1F661F771F881F91505040A9F79E3F5B
:101C0000510580F00C94560D0C94A10D5F3FE4F348
:101C1000983ED4F3869577956795B795F795E795B0
:101C20009F5FC1F7FE2B880F911D9695879597F9B9
:101C300008950E94320D880B990B089597FB072E8B
:101C400016F4009407D077FD09D00E94540E07FCCB
:101C500005D03EF4909581959F4F089570956195BC
:101C60007F4F0895A1E21A2EAA1BBB1BFD010DC0D8
:101C7000AA1FBB1FEE1FFF1FA217B307E407F5073C
:101C800020F0A21BB30BE40BF50B661F771F881F18
:101C9000991F1A9469F760957095809590959B01AE
:101CA000AC01BD01CF010895AA1BBB1B51E107C0C8
:101CB000AA1FBB1FA617B70710F0A61BB70B881FDC
:101CC000991F5A95A9F780959095BC01CD0108956B
:101CD000EE0FFF1F0590F491E02D0994F894FFCFCB
:101CE000000000006D034D02CC027A026E616E00AE
:0E1CF000696E66006F76660056004100570070
:00000001FF
